{
  "contractName": "IdentityStorage",
  "abi": [
    {
      "inputs": [
        {
          "internalType": "address",
          "name": "",
          "type": "address"
        }
      ],
      "name": "identities",
      "outputs": [
        {
          "internalType": "string",
          "name": "userHash",
          "type": "string"
        },
        {
          "internalType": "string",
          "name": "faceHash",
          "type": "string"
        }
      ],
      "stateMutability": "view",
      "type": "function",
      "constant": true
    },
    {
      "inputs": [
        {
          "internalType": "address",
          "name": "user",
          "type": "address"
        },
        {
          "internalType": "string",
          "name": "faceHash",
          "type": "string"
        }
      ],
      "name": "registerIdentity",
      "outputs": [],
      "stateMutability": "nonpayable",
      "type": "function"
    },
    {
      "inputs": [
        {
          "internalType": "address",
          "name": "user",
          "type": "address"
        }
      ],
      "name": "getIdentity",
      "outputs": [
        {
          "internalType": "string",
          "name": "",
          "type": "string"
        },
        {
          "internalType": "string",
          "name": "",
          "type": "string"
        }
      ],
      "stateMutability": "view",
      "type": "function",
      "constant": true
    }
  ],
  "bytecode": "0x608060405234801561001057600080fd5b50610835806100206000396000f3fe608060405234801561001057600080fd5b50600436106100415760003560e01c80632fea7b8114610046578063912d3c3314610077578063f653b81e14610093575b600080fd5b610060600480360381019061005b9190610569565b6100c4565b60405161006e92919061061f565b60405180910390f35b610091600480360381019061008c9190610592565b61024c565b005b6100ad60048036038101906100a89190610569565b610315565b6040516100bb92919061061f565b60405180910390f35b60608060008060008573ffffffffffffffffffffffffffffffffffffffff1673ffffffffffffffffffffffffffffffffffffffff16815260200190815260200160002060405180604001604052908160008201805461012290610747565b80601f016020809104026020016040519081016040528092919081815260200182805461014e90610747565b801561019b5780601f106101705761010080835404028352916020019161019b565b820191906000526020600020905b81548152906001019060200180831161017e57829003601f168201915b505050505081526020016001820180546101b490610747565b80601f01602080910402602001604051908101604052809291908181526020018280546101e090610747565b801561022d5780601f106102025761010080835404028352916020019161022d565b820191906000526020600020905b81548152906001019060200180831161021057829003601f168201915b5050505050815250509050806000015181602001519250925050915091565b60405180604001604052806040518060400160405280600b81526020017f7374617469632d757365720000000000000000000000000000000000000000008152508152602001828152506000808473ffffffffffffffffffffffffffffffffffffffff1673ffffffffffffffffffffffffffffffffffffffff16815260200190815260200160002060008201518160000190805190602001906102f0929190610449565b50602082015181600101908051906020019061030d929190610449565b509050505050565b600060205280600052604060002060009150905080600001805461033890610747565b80601f016020809104026020016040519081016040528092919081815260200182805461036490610747565b80156103b15780601f10610386576101008083540402835291602001916103b1565b820191906000526020600020905b81548152906001019060200180831161039457829003601f168201915b5050505050908060010180546103c690610747565b80601f01602080910402602001604051908101604052809291908181526020018280546103f290610747565b801561043f5780601f106104145761010080835404028352916020019161043f565b820191906000526020600020905b81548152906001019060200180831161042257829003601f168201915b5050505050905082565b82805461045590610747565b90600052602060002090601f01602090048101928261047757600085556104be565b82601f1061049057805160ff19168380011785556104be565b828001600101855582156104be579182015b828111156104bd5782518255916020019190600101906104a2565b5b5090506104cb91906104cf565b5090565b5b808211156104e85760008160009055506001016104d0565b5090565b60006104ff6104fa84610687565b610656565b90508281526020810184848401111561051757600080fd5b610522848285610705565b509392505050565b600081359050610539816107e8565b92915050565b600082601f83011261055057600080fd5b81356105608482602086016104ec565b91505092915050565b60006020828403121561057b57600080fd5b60006105898482850161052a565b91505092915050565b600080604083850312156105a557600080fd5b60006105b38582860161052a565b925050602083013567ffffffffffffffff8111156105d057600080fd5b6105dc8582860161053f565b9150509250929050565b60006105f1826106b7565b6105fb81856106c2565b935061060b818560208601610714565b610614816107d7565b840191505092915050565b6000604082019050818103600083015261063981856105e6565b9050818103602083015261064d81846105e6565b90509392505050565b6000604051905081810181811067ffffffffffffffff8211171561067d5761067c6107a8565b5b8060405250919050565b600067ffffffffffffffff8211156106a2576106a16107a8565b5b601f19601f8301169050602081019050919050565b600081519050919050565b600082825260208201905092915050565b60006106de826106e5565b9050919050565b600073ffffffffffffffffffffffffffffffffffffffff82169050919050565b82818337600083830152505050565b60005b83811015610732578082015181840152602081019050610717565b83811115610741576000848401525b50505050565b6000600282049050600182168061075f57607f821691505b6020821081141561077357610772610779565b5b50919050565b7f4e487b7100000000000000000000000000000000000000000000000000000000600052602260045260246000fd5b7f4e487b7100000000000000000000000000000000000000000000000000000000600052604160045260246000fd5b6000601f19601f8301169050919050565b6107f1816106d3565b81146107fc57600080fd5b5056fea2646970667358221220690a7c7ced55465cfd81dac97f4fe84243cd8e04bc678118a1b7a53452c6878964736f6c63430008000033",
  "immutableReferences": {},
  "source": "// SPDX-License-Identifier: MIT\npragma solidity ^0.8.0;\n\ncontract IdentityStorage {\n    struct Identity {\n        string userHash;\n        string faceHash;\n    }\n\n    mapping(address => Identity) public identities;\n\n    function registerIdentity(address user, string memory faceHash) public {\n        identities[user] = Identity(\"static-user\", faceHash);\n    }\n\n    function getIdentity(address user) public view returns (string memory, string memory) {\n        Identity memory i = identities[user];\n        return (i.userHash, i.faceHash);\n    }\n}",
  "sourcePath": "D:\\Decentralized_Identity_Verification\\blockchain\\contracts\\IdentityStorage.sol",
  "compiler": {
    "name": "solc",
    "version": "0.8.0+commit.c7dfd78e.Emscripten.clang"
  },
  "schemaVersion": "3.4.16",
  "updatedAt": "2025-04-01T16:45:55.999Z",
  "networkType": "ethereum",
  "devdoc": {
    "kind": "dev",
    "methods": {},
    "version": 1
  },
  "userdoc": {
    "kind": "user",
    "methods": {},
    "version": 1
  }
}